:107000000C9434380C9451380C9451380C945138F9
:107010000C9451380C9451380C9451380C945138CC
:107020000C9451380C9451380C9451380C945138BC
:107030000C9451380C9451380C94C6380C94513837
:107040000C9451380C9451380C9451380C9451389C
:107050000C9451380C9451380C9451380C9451388C
:107060000C9451380C94513811241FBECFEFD8E046
:10707000DEBFCDBF11E0A0E0B1E0E2E9F6E702C07B
:1070800005900D92A230B107D9F721E0A2E0B1E05E
:1070900001C01D92A330B207E1F70E94273A0C9479
:1070A000473B0C9400382FEF81EE94E02150804054
:1070B0009040E1F700C00000F89481E085BF15BE64
:1070C00084B5827084BDEEE6F0E080818D7F8083A0
:1070D00015BC1092BA001092BC0084B7877F84BFA1
:1070E0002FEF89E698E1215080409040E1F700C001
:1070F00000000C94000008958FEF87BD84B5826076
:1071000084BD85E085BDEEE6F0E08081826080830D
:1071100078940895CF93DC017FB7F894F999FECF66
:107120004D915C91119783E0FA0180935700E895A7
:1071300007B600FCFDCF30E020E0C1E012966C9174
:107140001297FA01E20FF31F13968C91139790E0B8
:10715000982F8827860F911D0C01C0935700E89542
:1071600011242E5F3F4F12962038310539F785E004
:10717000FA0180935700E89507B600FCFDCF81E146
:1071800080935700E8957FBFCF9108951F921FB657
:107190001F9211248F939F93809100019091010180
:1071A000181619067CF48091000190910101019755
:1071B00090930101809300019F918F911F901FBEBA
:1071C0001F90189580916E008D7F80936E0015BC86
:1071D000F3CFFC01AC014E5F5F4F80E0919120ED59
:1071E000290F2A3030F02FE9290F263048F429EAF8
:1071F000290F8295807F820FE417F50779F70895AC
:107200002FEB290F263010F429ECF2CF292FF1CFE4
:10721000AF92BF92DF92EF92FF920F931F93CF93A3
:10722000DF938C017B01FC018081C5E68A3359F430
:10723000C80101960E94E938D82EF7018083F0E159
:10724000F81760F4C6E68C2FDF91CF911F910F9154
:10725000FF90EF90DF90BF90AF900895C801039624
:107260000E94E938D82FA82EB12CF701B282A18252
:10727000C80105960E94E938BA2CAA24A80EB11CB0
:10728000F701B282A182C80107960E94E938C82F8F
:10729000F7018383CD0FCD0DCA0D075F1F4FF4E0BB
:1072A000EF0EF11C5801D0E0C5010E94E938C80F6B
:1072B000DD120EC08D2D90E0880F991F080F191F49
:1072C000C1110EC0F80182818D3009F4BCCFBACF54
:1072D000F70181937F01F2E0AF0EB11CDF5FE4CFD5
:1072E000C7E6B1CFCF93DF93FC01DC01AE57BF4FB0
:1072F0001C929FEF8C9187FF09C01C921182108213
:10730000ED57FF4F1082DF91CF910895EF01C80F25
:10731000D11D9A838F5F8C93EDCF0F931F93CF93E3
:10732000DF93EC010881198100581F4F0E947239C8
:1073300019830883DF91CF911F910F910895CF9208
:10734000DF92EF92FF920F931F93CF93DF93DC01B5
:10735000FB0113969C911397911172C011966D9138
:107360007C9112979B0120780081118102171307ED
:1073700049F120583F4F8AEC0217130709F057C014
:107380003C9190E080E06F0122E8C20ED11C83178F
:1073900010F080E04CC0AB01480F591F4017510757
:1073A00078F0E6012881AD01480F591FEA01FC8001
:1073B000AF01420F511DEA01FA822F5FE6012883D7
:1073C0000196E5CF2C91EF01CE57DF4F3881432F47
:1073D00050E080E8E82EF12CE41AF50A80E02E1542
:1073E0001F0431F02CF080E8830F820F20E8231B6C
:1073F000400F511F8D010C5F1F4F6417750771F00F
:1074000089EC15C0D8016D918D01AF01430F511D5D
:10741000DA0112966C933F5F38839F5F3881921335
:10742000F1CF303821F4ED57FF4F91E09083DF9199
:10743000CF911F910F91FF90EF90DF90CF90089523
:107440008BEC9130A1F7ED57FF4F9083A2CFCDB7D2
:10745000DEB7C65CD1090FB6F894DEBF0FBECDBF54
:1074600084B7877F84BF0FB6F894A8958091600099
:10747000886180936000109260000FBE209A289A65
:1074800081E085BF82E085BF82E580930201809123
:107490000201880F81608093BA0084E48093BC006D
:1074A0008091BC008F778093BC000E947C388091D3
:1074B000BC0087FFA6C08091B900803729F084ED19
:1074C0008093BC000E9453388091BC0080688093F8
:1074D000BC0014ED8091BC0087FF9EC08091B90074
:1074E000803921F48091BB008A3A29F084ED8093A1
:1074F000BC000E94533884EC8093BC0014ED809152
:10750000BC0087FF96C08091BA008E7F8093BA003E
:10751000CE0101960E94723984EDF82E04ECEC2E17
:1075200082EBE80E94E8D92EF092BC008091BC006A
:1075300087FFFCCF8091B9008036B1F7FE01EB5791
:10754000FF4F0093BC008091BC0087FFFCCF80916F
:10755000B900803821F48091BB0080831182809132
:10756000B900803A19F03196EE12EBCFD092BC0000
:10757000BE016D547F4FCE018B579F4F0E9408393B
:10758000182F81113CC0BE016F5F7F4FCE018D541B
:107590009F4F0E949F39182F813148F5CC57DF4FFC
:1075A0008881C458D040882311F1CE0101960E94F1
:1075B0008A38CE0101960E948D391123C1F0BE0197
:1075C0006F5F7F4FCE018D549F4F0E949F39182FC0
:1075D000CC57DF4F8881C458D040882341F0CE017A
:1075E00001960E948A38CE0101960E948D3981E071
:1075F000CA54DF4F9881C65BD040913069F180E07A
:107600002BC08091000190910101181619060CF40D
:107610004ECF0E9453384BCF8091000190910101D1
:10762000181619060CF456CF1093BC000E9453385C
:1076300051CF8091000190910101181619060CF4A8
:107640005ECF1093BC000E94533859CF0093BC000A
:107650009091BC0097FFFCCF9091B900983AB1F798
:107660001093BB000093BC009091BC0097FFFCCF2F
:10767000882309F459CF0E94533890E080E0CA5320
:10768000DF4F0FB6F894DEBF0FBECDBF0895F8945C
:02769000FFCF2A
:027692009C005A
:040000030000700089
:00000001FF
